{
    "_format": "hh-sol-artifact-1",
    "contractName": "testMint",
    "sourceName": "contracts/Minter.sol",
    "abi": [
        {
            "inputs": [
                {
                    "internalType": "string",
                    "name": "name",
                    "type": "string"
                },
                {
                    "internalType": "string",
                    "name": "symbol",
                    "type": "string"
                }
            ],
            "stateMutability": "nonpayable",
            "type": "constructor"
        },
        {
            "anonymous": false,
            "inputs": [
                {
                    "indexed": true,
                    "internalType": "address",
                    "name": "owner",
                    "type": "address"
                },
                {
                    "indexed": true,
                    "internalType": "address",
                    "name": "approved",
                    "type": "address"
                },
                {
                    "indexed": true,
                    "internalType": "uint256",
                    "name": "tokenId",
                    "type": "uint256"
                }
            ],
            "name": "Approval",
            "type": "event"
        },
        {
            "anonymous": false,
            "inputs": [
                {
                    "indexed": true,
                    "internalType": "address",
                    "name": "owner",
                    "type": "address"
                },
                {
                    "indexed": true,
                    "internalType": "address",
                    "name": "operator",
                    "type": "address"
                },
                {
                    "indexed": false,
                    "internalType": "bool",
                    "name": "approved",
                    "type": "bool"
                }
            ],
            "name": "ApprovalForAll",
            "type": "event"
        },
        {
            "anonymous": false,
            "inputs": [
                {
                    "indexed": true,
                    "internalType": "address",
                    "name": "previousOwner",
                    "type": "address"
                },
                {
                    "indexed": true,
                    "internalType": "address",
                    "name": "newOwner",
                    "type": "address"
                }
            ],
            "name": "OwnershipTransferred",
            "type": "event"
        },
        {
            "anonymous": false,
            "inputs": [
                {
                    "indexed": true,
                    "internalType": "address",
                    "name": "from",
                    "type": "address"
                },
                {
                    "indexed": true,
                    "internalType": "address",
                    "name": "to",
                    "type": "address"
                },
                {
                    "indexed": true,
                    "internalType": "uint256",
                    "name": "tokenId",
                    "type": "uint256"
                }
            ],
            "name": "Transfer",
            "type": "event"
        },
        {
            "inputs": [
                {
                    "internalType": "address",
                    "name": "to",
                    "type": "address"
                },
                {
                    "internalType": "uint256",
                    "name": "tokenId",
                    "type": "uint256"
                }
            ],
            "name": "approve",
            "outputs": [],
            "stateMutability": "nonpayable",
            "type": "function"
        },
        {
            "inputs": [
                {
                    "internalType": "address",
                    "name": "owner",
                    "type": "address"
                }
            ],
            "name": "balanceOf",
            "outputs": [
                {
                    "internalType": "uint256",
                    "name": "",
                    "type": "uint256"
                }
            ],
            "stateMutability": "view",
            "type": "function"
        },
        {
            "inputs": [
                {
                    "internalType": "address",
                    "name": "",
                    "type": "address"
                }
            ],
            "name": "balances",
            "outputs": [
                {
                    "internalType": "uint256",
                    "name": "",
                    "type": "uint256"
                }
            ],
            "stateMutability": "view",
            "type": "function"
        },
        {
            "inputs": [
                {
                    "internalType": "uint256",
                    "name": "tokenId",
                    "type": "uint256"
                }
            ],
            "name": "getApproved",
            "outputs": [
                {
                    "internalType": "address",
                    "name": "",
                    "type": "address"
                }
            ],
            "stateMutability": "view",
            "type": "function"
        },
        {
            "inputs": [
                {
                    "internalType": "address",
                    "name": "owner",
                    "type": "address"
                },
                {
                    "internalType": "address",
                    "name": "operator",
                    "type": "address"
                }
            ],
            "name": "isApprovedForAll",
            "outputs": [
                {
                    "internalType": "bool",
                    "name": "",
                    "type": "bool"
                }
            ],
            "stateMutability": "view",
            "type": "function"
        },
        {
            "inputs": [
                {
                    "internalType": "uint256",
                    "name": "numberofMints",
                    "type": "uint256"
                }
            ],
            "name": "mint",
            "outputs": [],
            "stateMutability": "payable",
            "type": "function"
        },
        {
            "inputs": [],
            "name": "name",
            "outputs": [
                {
                    "internalType": "string",
                    "name": "",
                    "type": "string"
                }
            ],
            "stateMutability": "view",
            "type": "function"
        },
        {
            "inputs": [],
            "name": "owner",
            "outputs": [
                {
                    "internalType": "address",
                    "name": "",
                    "type": "address"
                }
            ],
            "stateMutability": "view",
            "type": "function"
        },
        {
            "inputs": [
                {
                    "internalType": "uint256",
                    "name": "tokenId",
                    "type": "uint256"
                }
            ],
            "name": "ownerOf",
            "outputs": [
                {
                    "internalType": "address",
                    "name": "",
                    "type": "address"
                }
            ],
            "stateMutability": "view",
            "type": "function"
        },
        {
            "inputs": [],
            "name": "renounceOwnership",
            "outputs": [],
            "stateMutability": "nonpayable",
            "type": "function"
        },
        {
            "inputs": [
                {
                    "internalType": "address",
                    "name": "from",
                    "type": "address"
                },
                {
                    "internalType": "address",
                    "name": "to",
                    "type": "address"
                },
                {
                    "internalType": "uint256",
                    "name": "tokenId",
                    "type": "uint256"
                }
            ],
            "name": "safeTransferFrom",
            "outputs": [],
            "stateMutability": "nonpayable",
            "type": "function"
        },
        {
            "inputs": [
                {
                    "internalType": "address",
                    "name": "from",
                    "type": "address"
                },
                {
                    "internalType": "address",
                    "name": "to",
                    "type": "address"
                },
                {
                    "internalType": "uint256",
                    "name": "tokenId",
                    "type": "uint256"
                },
                {
                    "internalType": "bytes",
                    "name": "data",
                    "type": "bytes"
                }
            ],
            "name": "safeTransferFrom",
            "outputs": [],
            "stateMutability": "nonpayable",
            "type": "function"
        },
        {
            "inputs": [
                {
                    "internalType": "address",
                    "name": "operator",
                    "type": "address"
                },
                {
                    "internalType": "bool",
                    "name": "approved",
                    "type": "bool"
                }
            ],
            "name": "setApprovalForAll",
            "outputs": [],
            "stateMutability": "nonpayable",
            "type": "function"
        },
        {
            "inputs": [
                {
                    "internalType": "bytes4",
                    "name": "interfaceId",
                    "type": "bytes4"
                }
            ],
            "name": "supportsInterface",
            "outputs": [
                {
                    "internalType": "bool",
                    "name": "",
                    "type": "bool"
                }
            ],
            "stateMutability": "view",
            "type": "function"
        },
        {
            "inputs": [],
            "name": "symbol",
            "outputs": [
                {
                    "internalType": "string",
                    "name": "",
                    "type": "string"
                }
            ],
            "stateMutability": "view",
            "type": "function"
        },
        {
            "inputs": [
                {
                    "internalType": "uint256",
                    "name": "index",
                    "type": "uint256"
                }
            ],
            "name": "tokenByIndex",
            "outputs": [
                {
                    "internalType": "uint256",
                    "name": "",
                    "type": "uint256"
                }
            ],
            "stateMutability": "view",
            "type": "function"
        },
        {
            "inputs": [
                {
                    "internalType": "address",
                    "name": "owner",
                    "type": "address"
                },
                {
                    "internalType": "uint256",
                    "name": "index",
                    "type": "uint256"
                }
            ],
            "name": "tokenOfOwnerByIndex",
            "outputs": [
                {
                    "internalType": "uint256",
                    "name": "",
                    "type": "uint256"
                }
            ],
            "stateMutability": "view",
            "type": "function"
        },
        {
            "inputs": [
                {
                    "internalType": "uint256",
                    "name": "tokenId",
                    "type": "uint256"
                }
            ],
            "name": "tokenURI",
            "outputs": [
                {
                    "internalType": "string",
                    "name": "",
                    "type": "string"
                }
            ],
            "stateMutability": "view",
            "type": "function"
        },
        {
            "inputs": [],
            "name": "totalSupply",
            "outputs": [
                {
                    "internalType": "uint256",
                    "name": "",
                    "type": "uint256"
                }
            ],
            "stateMutability": "view",
            "type": "function"
        },
        {
            "inputs": [
                {
                    "internalType": "address",
                    "name": "from",
                    "type": "address"
                },
                {
                    "internalType": "address",
                    "name": "to",
                    "type": "address"
                },
                {
                    "internalType": "uint256",
                    "name": "tokenId",
                    "type": "uint256"
                }
            ],
            "name": "transferFrom",
            "outputs": [],
            "stateMutability": "nonpayable",
            "type": "function"
        },
        {
            "inputs": [
                {
                    "internalType": "address",
                    "name": "newOwner",
                    "type": "address"
                }
            ],
            "name": "transferOwnership",
            "outputs": [],
            "stateMutability": "nonpayable",
            "type": "function"
        }
    ],
    "bytecode": "0x60806040523480156200001157600080fd5b50604051620036a8380380620036a8833981810160405281019062000037919062000285565b818181600090805190602001906200005192919062000163565b5080600190805190602001906200006a92919062000163565b5050506200008d620000816200009560201b60201c565b6200009d60201b60201c565b505062000468565b600033905090565b6000600a60009054906101000a900473ffffffffffffffffffffffffffffffffffffffff16905081600a60006101000a81548173ffffffffffffffffffffffffffffffffffffffff021916908373ffffffffffffffffffffffffffffffffffffffff1602179055508173ffffffffffffffffffffffffffffffffffffffff168173ffffffffffffffffffffffffffffffffffffffff167f8be0079c531659141344cd1fd0a4f28419497f9722a3daafe3b4186f6b6457e060405160405180910390a35050565b82805462000171906200038d565b90600052602060002090601f016020900481019282620001955760008555620001e1565b82601f10620001b057805160ff1916838001178555620001e1565b82800160010185558215620001e1579182015b82811115620001e0578251825591602001919060010190620001c3565b5b509050620001f09190620001f4565b5090565b5b808211156200020f576000816000905550600101620001f5565b5090565b60006200022a620002248462000321565b620002f8565b9050828152602081018484840111156200024357600080fd5b6200025084828562000357565b509392505050565b600082601f8301126200026a57600080fd5b81516200027c84826020860162000213565b91505092915050565b600080604083850312156200029957600080fd5b600083015167ffffffffffffffff811115620002b457600080fd5b620002c28582860162000258565b925050602083015167ffffffffffffffff811115620002e057600080fd5b620002ee8582860162000258565b9150509250929050565b60006200030462000317565b9050620003128282620003c3565b919050565b6000604051905090565b600067ffffffffffffffff8211156200033f576200033e62000428565b5b6200034a8262000457565b9050602081019050919050565b60005b83811015620003775780820151818401526020810190506200035a565b8381111562000387576000848401525b50505050565b60006002820490506001821680620003a657607f821691505b60208210811415620003bd57620003bc620003f9565b5b50919050565b620003ce8262000457565b810181811067ffffffffffffffff82111715620003f057620003ef62000428565b5b80604052505050565b7f4e487b7100000000000000000000000000000000000000000000000000000000600052602260045260246000fd5b7f4e487b7100000000000000000000000000000000000000000000000000000000600052604160045260246000fd5b6000601f19601f8301169050919050565b61323080620004786000396000f3fe60806040526004361061012a5760003560e01c80636352211e116100ab578063a0712d681161006f578063a0712d6814610418578063a22cb46514610434578063b88d4fde1461045d578063c87b56dd14610486578063e985e9c5146104c3578063f2fde38b146105005761012a565b80636352211e1461033157806370a082311461036e578063715018a6146103ab5780638da5cb5b146103c257806395d89b41146103ed5761012a565b806323b872dd116100f257806323b872dd1461022857806327e235e3146102515780632f745c591461028e57806342842e0e146102cb5780634f6ccce7146102f45761012a565b806301ffc9a71461012f57806306fdde031461016c578063081812fc14610197578063095ea7b3146101d457806318160ddd146101fd575b600080fd5b34801561013b57600080fd5b50610156600480360381019061015191906123ec565b610529565b60405161016391906127cf565b60405180910390f35b34801561017857600080fd5b506101816105a3565b60405161018e91906127ea565b60405180910390f35b3480156101a357600080fd5b506101be60048036038101906101b9919061243e565b610635565b6040516101cb9190612768565b60405180910390f35b3480156101e057600080fd5b506101fb60048036038101906101f691906123b0565b61067b565b005b34801561020957600080fd5b50610212610793565b60405161021f91906129ec565b60405180910390f35b34801561023457600080fd5b5061024f600480360381019061024a91906122aa565b6107a0565b005b34801561025d57600080fd5b5061027860048036038101906102739190612245565b610800565b60405161028591906129ec565b60405180910390f35b34801561029a57600080fd5b506102b560048036038101906102b091906123b0565b610818565b6040516102c291906129ec565b60405180910390f35b3480156102d757600080fd5b506102f260048036038101906102ed91906122aa565b6108bd565b005b34801561030057600080fd5b5061031b6004803603810190610316919061243e565b6108dd565b60405161032891906129ec565b60405180910390f35b34801561033d57600080fd5b506103586004803603810190610353919061243e565b610974565b6040516103659190612768565b60405180910390f35b34801561037a57600080fd5b5061039560048036038101906103909190612245565b610a26565b6040516103a291906129ec565b60405180910390f35b3480156103b757600080fd5b506103c0610ade565b005b3480156103ce57600080fd5b506103d7610af2565b6040516103e49190612768565b60405180910390f35b3480156103f957600080fd5b50610402610b1c565b60405161040f91906127ea565b60405180910390f35b610432600480360381019061042d919061243e565b610bae565b005b34801561044057600080fd5b5061045b60048036038101906104569190612374565b610c48565b005b34801561046957600080fd5b50610484600480360381019061047f91906122f9565b610c5e565b005b34801561049257600080fd5b506104ad60048036038101906104a8919061243e565b610cc0565b6040516104ba91906127ea565b60405180910390f35b3480156104cf57600080fd5b506104ea60048036038101906104e5919061226e565b610d28565b6040516104f791906127cf565b60405180910390f35b34801561050c57600080fd5b5061052760048036038101906105229190612245565b610dbc565b005b60007f780e9d63000000000000000000000000000000000000000000000000000000007bffffffffffffffffffffffffffffffffffffffffffffffffffffffff1916827bffffffffffffffffffffffffffffffffffffffffffffffffffffffff1916148061059c575061059b82610e40565b5b9050919050565b6060600080546105b290612c11565b80601f01602080910402602001604051908101604052809291908181526020018280546105de90612c11565b801561062b5780601f106106005761010080835404028352916020019161062b565b820191906000526020600020905b81548152906001019060200180831161060e57829003601f168201915b5050505050905090565b600061064082610f22565b6004600083815260200190815260200160002060009054906101000a900473ffffffffffffffffffffffffffffffffffffffff169050919050565b600061068682610974565b90508073ffffffffffffffffffffffffffffffffffffffff168373ffffffffffffffffffffffffffffffffffffffff1614156106f7576040517f08c379a00000000000000000000000000000000000000000000000000000000081526004016106ee9061298c565b60405180910390fd5b8073ffffffffffffffffffffffffffffffffffffffff16610716610f6d565b73ffffffffffffffffffffffffffffffffffffffff16148061074557506107448161073f610f6d565b610d28565b5b610784576040517f08c379a000000000000000000000000000000000000000000000000000000000815260040161077b9061290c565b60405180910390fd5b61078e8383610f75565b505050565b6000600880549050905090565b6107b16107ab610f6d565b8261102e565b6107f0576040517f08c379a00000000000000000000000000000000000000000000000000000000081526004016107e7906129cc565b60405180910390fd5b6107fb8383836110c3565b505050565b600b6020528060005260406000206000915090505481565b600061082383610a26565b8210610864576040517f08c379a000000000000000000000000000000000000000000000000000000000815260040161085b9061280c565b60405180910390fd5b600660008473ffffffffffffffffffffffffffffffffffffffff1673ffffffffffffffffffffffffffffffffffffffff168152602001908152602001600020600083815260200190815260200160002054905092915050565b6108d883838360405180602001604052806000815250610c5e565b505050565b60006108e7610793565b8210610928576040517f08c379a000000000000000000000000000000000000000000000000000000000815260040161091f906129ac565b60405180910390fd5b60088281548110610962577f4e487b7100000000000000000000000000000000000000000000000000000000600052603260045260246000fd5b90600052602060002001549050919050565b6000806002600084815260200190815260200160002060009054906101000a900473ffffffffffffffffffffffffffffffffffffffff169050600073ffffffffffffffffffffffffffffffffffffffff168173ffffffffffffffffffffffffffffffffffffffff161415610a1d576040517f08c379a0000000000000000000000000000000000000000000000000000000008152600401610a149061296c565b60405180910390fd5b80915050919050565b60008073ffffffffffffffffffffffffffffffffffffffff168273ffffffffffffffffffffffffffffffffffffffff161415610a97576040517f08c379a0000000000000000000000000000000000000000000000000000000008152600401610a8e906128ec565b60405180910390fd5b600360008373ffffffffffffffffffffffffffffffffffffffff1673ffffffffffffffffffffffffffffffffffffffff168152602001908152602001600020549050919050565b610ae661132a565b610af060006113a8565b565b6000600a60009054906101000a900473ffffffffffffffffffffffffffffffffffffffff16905090565b606060018054610b2b90612c11565b80601f0160208091040260200160405190810160405280929190818152602001828054610b5790612c11565b8015610ba45780601f10610b7957610100808354040283529160200191610ba4565b820191906000526020600020905b815481529060010190602001808311610b8757829003601f168201915b5050505050905090565b6000610bb8610793565b905060005b82811015610c4357610bdb33600184610bd69190612aa0565b61146e565b600b60003373ffffffffffffffffffffffffffffffffffffffff1673ffffffffffffffffffffffffffffffffffffffff1681526020019081526020016000206000815480929190610c2b90612c74565b91905055508080610c3b90612c74565b915050610bbd565b505050565b610c5a610c53610f6d565b838361148c565b5050565b610c6f610c69610f6d565b8361102e565b610cae576040517f08c379a0000000000000000000000000000000000000000000000000000000008152600401610ca5906129cc565b60405180910390fd5b610cba848484846115f9565b50505050565b6060610ccb82610f22565b6000610cd5611655565b90506000815111610cf55760405180602001604052806000815250610d20565b80610cff8461166c565b604051602001610d10929190612744565b6040516020818303038152906040525b915050919050565b6000600560008473ffffffffffffffffffffffffffffffffffffffff1673ffffffffffffffffffffffffffffffffffffffff16815260200190815260200160002060008373ffffffffffffffffffffffffffffffffffffffff1673ffffffffffffffffffffffffffffffffffffffff16815260200190815260200160002060009054906101000a900460ff16905092915050565b610dc461132a565b600073ffffffffffffffffffffffffffffffffffffffff168173ffffffffffffffffffffffffffffffffffffffff161415610e34576040517f08c379a0000000000000000000000000000000000000000000000000000000008152600401610e2b9061284c565b60405180910390fd5b610e3d816113a8565b50565b60007f80ac58cd000000000000000000000000000000000000000000000000000000007bffffffffffffffffffffffffffffffffffffffffffffffffffffffff1916827bffffffffffffffffffffffffffffffffffffffffffffffffffffffff19161480610f0b57507f5b5e139f000000000000000000000000000000000000000000000000000000007bffffffffffffffffffffffffffffffffffffffffffffffffffffffff1916827bffffffffffffffffffffffffffffffffffffffffffffffffffffffff1916145b80610f1b5750610f1a82611819565b5b9050919050565b610f2b81611883565b610f6a576040517f08c379a0000000000000000000000000000000000000000000000000000000008152600401610f619061296c565b60405180910390fd5b50565b600033905090565b816004600083815260200190815260200160002060006101000a81548173ffffffffffffffffffffffffffffffffffffffff021916908373ffffffffffffffffffffffffffffffffffffffff160217905550808273ffffffffffffffffffffffffffffffffffffffff16610fe883610974565b73ffffffffffffffffffffffffffffffffffffffff167f8c5be1e5ebec7d5bd14f71427d1e84f3dd0314c0f7b2291e5b200ac8c7c3b92560405160405180910390a45050565b60008061103a83610974565b90508073ffffffffffffffffffffffffffffffffffffffff168473ffffffffffffffffffffffffffffffffffffffff16148061107c575061107b8185610d28565b5b806110ba57508373ffffffffffffffffffffffffffffffffffffffff166110a284610635565b73ffffffffffffffffffffffffffffffffffffffff16145b91505092915050565b8273ffffffffffffffffffffffffffffffffffffffff166110e382610974565b73ffffffffffffffffffffffffffffffffffffffff1614611139576040517f08c379a00000000000000000000000000000000000000000000000000000000081526004016111309061286c565b60405180910390fd5b600073ffffffffffffffffffffffffffffffffffffffff168273ffffffffffffffffffffffffffffffffffffffff1614156111a9576040517f08c379a00000000000000000000000000000000000000000000000000000000081526004016111a0906128ac565b60405180910390fd5b6111b48383836118ef565b6111bf600082610f75565b6001600360008573ffffffffffffffffffffffffffffffffffffffff1673ffffffffffffffffffffffffffffffffffffffff168152602001908152602001600020600082825461120f9190612b27565b925050819055506001600360008473ffffffffffffffffffffffffffffffffffffffff1673ffffffffffffffffffffffffffffffffffffffff16815260200190815260200160002060008282546112669190612aa0565b92505081905550816002600083815260200190815260200160002060006101000a81548173ffffffffffffffffffffffffffffffffffffffff021916908373ffffffffffffffffffffffffffffffffffffffff160217905550808273ffffffffffffffffffffffffffffffffffffffff168473ffffffffffffffffffffffffffffffffffffffff167fddf252ad1be2c89b69c2b068fc378daa952ba7f163c4a11628f55a4df523b3ef60405160405180910390a4611325838383611a03565b505050565b611332610f6d565b73ffffffffffffffffffffffffffffffffffffffff16611350610af2565b73ffffffffffffffffffffffffffffffffffffffff16146113a6576040517f08c379a000000000000000000000000000000000000000000000000000000000815260040161139d9061294c565b60405180910390fd5b565b6000600a60009054906101000a900473ffffffffffffffffffffffffffffffffffffffff16905081600a60006101000a81548173ffffffffffffffffffffffffffffffffffffffff021916908373ffffffffffffffffffffffffffffffffffffffff1602179055508173ffffffffffffffffffffffffffffffffffffffff168173ffffffffffffffffffffffffffffffffffffffff167f8be0079c531659141344cd1fd0a4f28419497f9722a3daafe3b4186f6b6457e060405160405180910390a35050565b611488828260405180602001604052806000815250611a08565b5050565b8173ffffffffffffffffffffffffffffffffffffffff168373ffffffffffffffffffffffffffffffffffffffff1614156114fb576040517f08c379a00000000000000000000000000000000000000000000000000000000081526004016114f2906128cc565b60405180910390fd5b80600560008573ffffffffffffffffffffffffffffffffffffffff1673ffffffffffffffffffffffffffffffffffffffff16815260200190815260200160002060008473ffffffffffffffffffffffffffffffffffffffff1673ffffffffffffffffffffffffffffffffffffffff16815260200190815260200160002060006101000a81548160ff0219169083151502179055508173ffffffffffffffffffffffffffffffffffffffff168373ffffffffffffffffffffffffffffffffffffffff167f17307eab39ab6107e8899845ad3d59bd9653f200f220920489ca2b5937696c31836040516115ec91906127cf565b60405180910390a3505050565b6116048484846110c3565b61161084848484611a63565b61164f576040517f08c379a00000000000000000000000000000000000000000000000000000000081526004016116469061282c565b60405180910390fd5b50505050565b606060405180602001604052806000815250905090565b606060008214156116b4576040518060400160405280600181526020017f30000000000000000000000000000000000000000000000000000000000000008152509050611814565b600082905060005b600082146116e65780806116cf90612c74565b915050600a826116df9190612af6565b91506116bc565b60008167ffffffffffffffff811115611728577f4e487b7100000000000000000000000000000000000000000000000000000000600052604160045260246000fd5b6040519080825280601f01601f19166020018201604052801561175a5781602001600182028036833780820191505090505b5090505b6000851461180d576001826117739190612b27565b9150600a856117829190612cbd565b603061178e9190612aa0565b60f81b8183815181106117ca577f4e487b7100000000000000000000000000000000000000000000000000000000600052603260045260246000fd5b60200101907effffffffffffffffffffffffffffffffffffffffffffffffffffffffffffff1916908160001a905350600a856118069190612af6565b945061175e565b8093505050505b919050565b60007f01ffc9a7000000000000000000000000000000000000000000000000000000007bffffffffffffffffffffffffffffffffffffffffffffffffffffffff1916827bffffffffffffffffffffffffffffffffffffffffffffffffffffffff1916149050919050565b60008073ffffffffffffffffffffffffffffffffffffffff166002600084815260200190815260200160002060009054906101000a900473ffffffffffffffffffffffffffffffffffffffff1673ffffffffffffffffffffffffffffffffffffffff1614159050919050565b6118fa838383611bfa565b600073ffffffffffffffffffffffffffffffffffffffff168373ffffffffffffffffffffffffffffffffffffffff16141561193d5761193881611bff565b61197c565b8173ffffffffffffffffffffffffffffffffffffffff168373ffffffffffffffffffffffffffffffffffffffff161461197b5761197a8382611c48565b5b5b600073ffffffffffffffffffffffffffffffffffffffff168273ffffffffffffffffffffffffffffffffffffffff1614156119bf576119ba81611db5565b6119fe565b8273ffffffffffffffffffffffffffffffffffffffff168273ffffffffffffffffffffffffffffffffffffffff16146119fd576119fc8282611ef8565b5b5b505050565b505050565b611a128383611f77565b611a1f6000848484611a63565b611a5e576040517f08c379a0000000000000000000000000000000000000000000000000000000008152600401611a559061282c565b60405180910390fd5b505050565b6000611a848473ffffffffffffffffffffffffffffffffffffffff16612151565b15611bed578373ffffffffffffffffffffffffffffffffffffffff1663150b7a02611aad610f6d565b8786866040518563ffffffff1660e01b8152600401611acf9493929190612783565b602060405180830381600087803b158015611ae957600080fd5b505af1925050508015611b1a57506040513d601f19601f82011682018060405250810190611b179190612415565b60015b611b9d573d8060008114611b4a576040519150601f19603f3d011682016040523d82523d6000602084013e611b4f565b606091505b50600081511415611b95576040517f08c379a0000000000000000000000000000000000000000000000000000000008152600401611b8c9061282c565b60405180910390fd5b805181602001fd5b63150b7a0260e01b7bffffffffffffffffffffffffffffffffffffffffffffffffffffffff1916817bffffffffffffffffffffffffffffffffffffffffffffffffffffffff191614915050611bf2565b600190505b949350505050565b505050565b6008805490506009600083815260200190815260200160002081905550600881908060018154018082558091505060019003906000526020600020016000909190919091505550565b60006001611c5584610a26565b611c5f9190612b27565b9050600060076000848152602001908152602001600020549050818114611d44576000600660008673ffffffffffffffffffffffffffffffffffffffff1673ffffffffffffffffffffffffffffffffffffffff168152602001908152602001600020600084815260200190815260200160002054905080600660008773ffffffffffffffffffffffffffffffffffffffff1673ffffffffffffffffffffffffffffffffffffffff168152602001908152602001600020600084815260200190815260200160002081905550816007600083815260200190815260200160002081905550505b6007600084815260200190815260200160002060009055600660008573ffffffffffffffffffffffffffffffffffffffff1673ffffffffffffffffffffffffffffffffffffffff16815260200190815260200160002060008381526020019081526020016000206000905550505050565b60006001600880549050611dc99190612b27565b9050600060096000848152602001908152602001600020549050600060088381548110611e1f577f4e487b7100000000000000000000000000000000000000000000000000000000600052603260045260246000fd5b906000526020600020015490508060088381548110611e67577f4e487b7100000000000000000000000000000000000000000000000000000000600052603260045260246000fd5b906000526020600020018190555081600960008381526020019081526020016000208190555060096000858152602001908152602001600020600090556008805480611edc577f4e487b7100000000000000000000000000000000000000000000000000000000600052603160045260246000fd5b6001900381819060005260206000200160009055905550505050565b6000611f0383610a26565b905081600660008573ffffffffffffffffffffffffffffffffffffffff1673ffffffffffffffffffffffffffffffffffffffff168152602001908152602001600020600083815260200190815260200160002081905550806007600084815260200190815260200160002081905550505050565b600073ffffffffffffffffffffffffffffffffffffffff168273ffffffffffffffffffffffffffffffffffffffff161415611fe7576040517f08c379a0000000000000000000000000000000000000000000000000000000008152600401611fde9061292c565b60405180910390fd5b611ff081611883565b15612030576040517f08c379a00000000000000000000000000000000000000000000000000000000081526004016120279061288c565b60405180910390fd5b61203c600083836118ef565b6001600360008473ffffffffffffffffffffffffffffffffffffffff1673ffffffffffffffffffffffffffffffffffffffff168152602001908152602001600020600082825461208c9190612aa0565b92505081905550816002600083815260200190815260200160002060006101000a81548173ffffffffffffffffffffffffffffffffffffffff021916908373ffffffffffffffffffffffffffffffffffffffff160217905550808273ffffffffffffffffffffffffffffffffffffffff16600073ffffffffffffffffffffffffffffffffffffffff167fddf252ad1be2c89b69c2b068fc378daa952ba7f163c4a11628f55a4df523b3ef60405160405180910390a461214d60008383611a03565b5050565b6000808273ffffffffffffffffffffffffffffffffffffffff163b119050919050565b600061218761218284612a2c565b612a07565b90508281526020810184848401111561219f57600080fd5b6121aa848285612bcf565b509392505050565b6000813590506121c18161319e565b92915050565b6000813590506121d6816131b5565b92915050565b6000813590506121eb816131cc565b92915050565b600081519050612200816131cc565b92915050565b600082601f83011261221757600080fd5b8135612227848260208601612174565b91505092915050565b60008135905061223f816131e3565b92915050565b60006020828403121561225757600080fd5b6000612265848285016121b2565b91505092915050565b6000806040838503121561228157600080fd5b600061228f858286016121b2565b92505060206122a0858286016121b2565b9150509250929050565b6000806000606084860312156122bf57600080fd5b60006122cd868287016121b2565b93505060206122de868287016121b2565b92505060406122ef86828701612230565b9150509250925092565b6000806000806080858703121561230f57600080fd5b600061231d878288016121b2565b945050602061232e878288016121b2565b935050604061233f87828801612230565b925050606085013567ffffffffffffffff81111561235c57600080fd5b61236887828801612206565b91505092959194509250565b6000806040838503121561238757600080fd5b6000612395858286016121b2565b92505060206123a6858286016121c7565b9150509250929050565b600080604083850312156123c357600080fd5b60006123d1858286016121b2565b92505060206123e285828601612230565b9150509250929050565b6000602082840312156123fe57600080fd5b600061240c848285016121dc565b91505092915050565b60006020828403121561242757600080fd5b6000612435848285016121f1565b91505092915050565b60006020828403121561245057600080fd5b600061245e84828501612230565b91505092915050565b61247081612b5b565b82525050565b61247f81612b6d565b82525050565b600061249082612a5d565b61249a8185612a73565b93506124aa818560208601612bde565b6124b381612daa565b840191505092915050565b60006124c982612a68565b6124d38185612a84565b93506124e3818560208601612bde565b6124ec81612daa565b840191505092915050565b600061250282612a68565b61250c8185612a95565b935061251c818560208601612bde565b80840191505092915050565b6000612535602b83612a84565b915061254082612dbb565b604082019050919050565b6000612558603283612a84565b915061256382612e0a565b604082019050919050565b600061257b602683612a84565b915061258682612e59565b604082019050919050565b600061259e602583612a84565b91506125a982612ea8565b604082019050919050565b60006125c1601c83612a84565b91506125cc82612ef7565b602082019050919050565b60006125e4602483612a84565b91506125ef82612f20565b604082019050919050565b6000612607601983612a84565b915061261282612f6f565b602082019050919050565b600061262a602983612a84565b915061263582612f98565b604082019050919050565b600061264d603e83612a84565b915061265882612fe7565b604082019050919050565b6000612670602083612a84565b915061267b82613036565b602082019050919050565b6000612693602083612a84565b915061269e8261305f565b602082019050919050565b60006126b6601883612a84565b91506126c182613088565b602082019050919050565b60006126d9602183612a84565b91506126e4826130b1565b604082019050919050565b60006126fc602c83612a84565b915061270782613100565b604082019050919050565b600061271f602e83612a84565b915061272a8261314f565b604082019050919050565b61273e81612bc5565b82525050565b600061275082856124f7565b915061275c82846124f7565b91508190509392505050565b600060208201905061277d6000830184612467565b92915050565b60006080820190506127986000830187612467565b6127a56020830186612467565b6127b26040830185612735565b81810360608301526127c48184612485565b905095945050505050565b60006020820190506127e46000830184612476565b92915050565b6000602082019050818103600083015261280481846124be565b905092915050565b6000602082019050818103600083015261282581612528565b9050919050565b600060208201905081810360008301526128458161254b565b9050919050565b600060208201905081810360008301526128658161256e565b9050919050565b6000602082019050818103600083015261288581612591565b9050919050565b600060208201905081810360008301526128a5816125b4565b9050919050565b600060208201905081810360008301526128c5816125d7565b9050919050565b600060208201905081810360008301526128e5816125fa565b9050919050565b600060208201905081810360008301526129058161261d565b9050919050565b6000602082019050818103600083015261292581612640565b9050919050565b6000602082019050818103600083015261294581612663565b9050919050565b6000602082019050818103600083015261296581612686565b9050919050565b60006020820190508181036000830152612985816126a9565b9050919050565b600060208201905081810360008301526129a5816126cc565b9050919050565b600060208201905081810360008301526129c5816126ef565b9050919050565b600060208201905081810360008301526129e581612712565b9050919050565b6000602082019050612a016000830184612735565b92915050565b6000612a11612a22565b9050612a1d8282612c43565b919050565b6000604051905090565b600067ffffffffffffffff821115612a4757612a46612d7b565b5b612a5082612daa565b9050602081019050919050565b600081519050919050565b600081519050919050565b600082825260208201905092915050565b600082825260208201905092915050565b600081905092915050565b6000612aab82612bc5565b9150612ab683612bc5565b9250827fffffffffffffffffffffffffffffffffffffffffffffffffffffffffffffffff03821115612aeb57612aea612cee565b5b828201905092915050565b6000612b0182612bc5565b9150612b0c83612bc5565b925082612b1c57612b1b612d1d565b5b828204905092915050565b6000612b3282612bc5565b9150612b3d83612bc5565b925082821015612b5057612b4f612cee565b5b828203905092915050565b6000612b6682612ba5565b9050919050565b60008115159050919050565b60007fffffffff0000000000000000000000000000000000000000000000000000000082169050919050565b600073ffffffffffffffffffffffffffffffffffffffff82169050919050565b6000819050919050565b82818337600083830152505050565b60005b83811015612bfc578082015181840152602081019050612be1565b83811115612c0b576000848401525b50505050565b60006002820490506001821680612c2957607f821691505b60208210811415612c3d57612c3c612d4c565b5b50919050565b612c4c82612daa565b810181811067ffffffffffffffff82111715612c6b57612c6a612d7b565b5b80604052505050565b6000612c7f82612bc5565b91507fffffffffffffffffffffffffffffffffffffffffffffffffffffffffffffffff821415612cb257612cb1612cee565b5b600182019050919050565b6000612cc882612bc5565b9150612cd383612bc5565b925082612ce357612ce2612d1d565b5b828206905092915050565b7f4e487b7100000000000000000000000000000000000000000000000000000000600052601160045260246000fd5b7f4e487b7100000000000000000000000000000000000000000000000000000000600052601260045260246000fd5b7f4e487b7100000000000000000000000000000000000000000000000000000000600052602260045260246000fd5b7f4e487b7100000000000000000000000000000000000000000000000000000000600052604160045260246000fd5b6000601f19601f8301169050919050565b7f455243373231456e756d657261626c653a206f776e657220696e646578206f7560008201527f74206f6620626f756e6473000000000000000000000000000000000000000000602082015250565b7f4552433732313a207472616e7366657220746f206e6f6e20455243373231526560008201527f63656976657220696d706c656d656e7465720000000000000000000000000000602082015250565b7f4f776e61626c653a206e6577206f776e657220697320746865207a65726f206160008201527f6464726573730000000000000000000000000000000000000000000000000000602082015250565b7f4552433732313a207472616e736665722066726f6d20696e636f72726563742060008201527f6f776e6572000000000000000000000000000000000000000000000000000000602082015250565b7f4552433732313a20746f6b656e20616c7265616479206d696e74656400000000600082015250565b7f4552433732313a207472616e7366657220746f20746865207a65726f2061646460008201527f7265737300000000000000000000000000000000000000000000000000000000602082015250565b7f4552433732313a20617070726f766520746f2063616c6c657200000000000000600082015250565b7f4552433732313a2061646472657373207a65726f206973206e6f74206120766160008201527f6c6964206f776e65720000000000000000000000000000000000000000000000602082015250565b7f4552433732313a20617070726f76652063616c6c6572206973206e6f7420746f60008201527f6b656e206f776e6572206e6f7220617070726f76656420666f7220616c6c0000602082015250565b7f4552433732313a206d696e7420746f20746865207a65726f2061646472657373600082015250565b7f4f776e61626c653a2063616c6c6572206973206e6f7420746865206f776e6572600082015250565b7f4552433732313a20696e76616c696420746f6b656e2049440000000000000000600082015250565b7f4552433732313a20617070726f76616c20746f2063757272656e74206f776e6560008201527f7200000000000000000000000000000000000000000000000000000000000000602082015250565b7f455243373231456e756d657261626c653a20676c6f62616c20696e646578206f60008201527f7574206f6620626f756e64730000000000000000000000000000000000000000602082015250565b7f4552433732313a2063616c6c6572206973206e6f7420746f6b656e206f776e6560008201527f72206e6f7220617070726f766564000000000000000000000000000000000000602082015250565b6131a781612b5b565b81146131b257600080fd5b50565b6131be81612b6d565b81146131c957600080fd5b50565b6131d581612b79565b81146131e057600080fd5b50565b6131ec81612bc5565b81146131f757600080fd5b5056fea2646970667358221220816e26350a50c961fc1a9792a3fd2d7bd105952a368470f6c7c871211b381f4664736f6c63430008040033",
    "linkReferences": {},
    "deployedLinkReferences": {}
}